{
  "address": "0x024Cd9D0C90beD67b0A64Bc109D99772876c1b80",
  "abi": [
    {
      "anonymous": false,
      "inputs": [
        {
          "indexed": true,
          "internalType": "address",
          "name": "voter",
          "type": "address"
        },
        {
          "indexed": false,
          "internalType": "enum Voting.Team",
          "name": "team",
          "type": "uint8"
        }
      ],
      "name": "Voted",
      "type": "event"
    },
    {
      "inputs": [],
      "name": "getAllVotes",
      "outputs": [
        {
          "internalType": "uint256[4]",
          "name": "",
          "type": "uint256[4]"
        }
      ],
      "stateMutability": "view",
      "type": "function"
    },
    {
      "inputs": [
        {
          "internalType": "uint8",
          "name": "team",
          "type": "uint8"
        }
      ],
      "name": "getVotes",
      "outputs": [
        {
          "internalType": "uint256",
          "name": "",
          "type": "uint256"
        }
      ],
      "stateMutability": "view",
      "type": "function"
    },
    {
      "inputs": [
        {
          "internalType": "address",
          "name": "",
          "type": "address"
        }
      ],
      "name": "hasVoted",
      "outputs": [
        {
          "internalType": "bool",
          "name": "",
          "type": "bool"
        }
      ],
      "stateMutability": "view",
      "type": "function"
    },
    {
      "inputs": [
        {
          "internalType": "uint8",
          "name": "team",
          "type": "uint8"
        }
      ],
      "name": "vote",
      "outputs": [],
      "stateMutability": "nonpayable",
      "type": "function"
    },
    {
      "inputs": [
        {
          "internalType": "uint256",
          "name": "",
          "type": "uint256"
        }
      ],
      "name": "votes",
      "outputs": [
        {
          "internalType": "uint256",
          "name": "",
          "type": "uint256"
        }
      ],
      "stateMutability": "view",
      "type": "function"
    }
  ],
  "transactionHash": "0xbbce0e1dde99608c447ec7b440e068065675d4f9fbe0f0485f84c3f6103d8c67",
  "args": [],
  "numDeployments": 1,
  "solcInputHash": "8e7963aca31cf938312499e10ecfa71b",
  "bytecode": "0x608060405234801561001057600080fd5b5061043e806100206000396000f3fe608060405234801561001057600080fd5b50600436106100575760003560e01c806309eef43e1461005c5780635df8133014610094578063851b6ef2146100b55780638953bb72146100ca578063b3f98adc146100dd575b600080fd5b61007f61006a3660046102f0565b60046020526000908152604090205460ff1681565b60405190151581526020015b60405180910390f35b6100a76100a2366004610320565b6100f2565b60405190815260200161008b565b6100bd610109565b60405161008b9190610339565b6100a76100d836600461036a565b610144565b6100f06100eb36600461036a565b6101ab565b005b6000816004811061010257600080fd5b0154905081565b6101116102d2565b6040805160808101918290529060009060049082845b815481526020019060010190808311610127575050505050905090565b600060048260ff161061018d5760405162461bcd60e51b815260206004820152600c60248201526b496e76616c6964207465616d60a01b60448201526064015b60405180910390fd5b60008260ff16600481106101a3576101a361038d565b015492915050565b60048160ff16106101ed5760405162461bcd60e51b815260206004820152600c60248201526b496e76616c6964207465616d60a01b6044820152606401610184565b3360009081526004602052604090205460ff161561023d5760405162461bcd60e51b815260206004820152600d60248201526c105b1c9958591e481d9bdd1959609a1b6044820152606401610184565b600160008260ff16600481106102555761025561038d565b01600082825461026591906103a3565b9091555050336000818152600460205260409020805460ff191660011790557f14075e33dffdc00c1fcaf75d0f86d667170be57fb566b12b41b499e5fa53b12560ff831660038111156102ba576102ba6103ca565b6040516102c791906103e0565b60405180910390a250565b60405180608001604052806004906020820280368337509192915050565b60006020828403121561030257600080fd5b81356001600160a01b038116811461031957600080fd5b9392505050565b60006020828403121561033257600080fd5b5035919050565b60808101818360005b6004811015610361578151835260209283019290910190600101610342565b50505092915050565b60006020828403121561037c57600080fd5b813560ff8116811461031957600080fd5b634e487b7160e01b600052603260045260246000fd5b808201808211156103c457634e487b7160e01b600052601160045260246000fd5b92915050565b634e487b7160e01b600052602160045260246000fd5b602081016004831061040257634e487b7160e01b600052602160045260246000fd5b9190529056fea2646970667358221220280012dc20c623d9e4d49a029c7a693df059a93cde2718bc859f180390783b8864736f6c63430008140033",
  "devdoc": {
    "kind": "dev",
    "methods": {
      "getVotes(uint8)": {
        "params": {
          "team": "The team index"
        }
      },
      "vote(uint8)": {
        "params": {
          "team": "The team to vote for (0: Millonarios, 1: IndependienteMedellin, 2: AtleticoNacional, 3: Otros)"
        }
      }
    },
    "version": 1
  },
  "userdoc": {
    "kind": "user",
    "methods": {
      "getAllVotes()": {
        "notice": "Get all vote counts"
      },
      "getVotes(uint8)": {
        "notice": "Get the vote count for a specific team"
      },
      "vote(uint8)": {
        "notice": "Vote for your favorite team. Only costs gas."
      }
    },
    "version": 1
  },
  "storageLayout": {
    "storage": [
      {
        "astId": 10,
        "contract": "contracts/Voting.sol:Voting",
        "label": "votes",
        "offset": 0,
        "slot": "0",
        "type": "t_array(t_uint256)4_storage"
      },
      {
        "astId": 14,
        "contract": "contracts/Voting.sol:Voting",
        "label": "hasVoted",
        "offset": 0,
        "slot": "4",
        "type": "t_mapping(t_address,t_bool)"
      }
    ],
    "types": {
      "t_address": {
        "encoding": "inplace",
        "label": "address",
        "numberOfBytes": "20"
      },
      "t_array(t_uint256)4_storage": {
        "base": "t_uint256",
        "encoding": "inplace",
        "label": "uint256[4]",
        "numberOfBytes": "128"
      },
      "t_bool": {
        "encoding": "inplace",
        "label": "bool",
        "numberOfBytes": "1"
      },
      "t_mapping(t_address,t_bool)": {
        "encoding": "mapping",
        "key": "t_address",
        "label": "mapping(address => bool)",
        "numberOfBytes": "32",
        "value": "t_bool"
      },
      "t_uint256": {
        "encoding": "inplace",
        "label": "uint256",
        "numberOfBytes": "32"
      }
    }
  }
}